{
  "_format": "hh-sol-artifact-1",
  "contractName": "OK_101",
  "sourceName": "contracts/contract.sol",
  "abi": [
    {
      "inputs": [],
      "stateMutability": "nonpayable",
      "type": "constructor"
    },
    {
      "anonymous": false,
      "inputs": [
        {
          "indexed": false,
          "internalType": "uint256",
          "name": "timestamp",
          "type": "uint256"
        }
      ],
      "name": "GameStarted",
      "type": "event"
    },
    {
      "anonymous": false,
      "inputs": [
        {
          "indexed": false,
          "internalType": "address",
          "name": "player",
          "type": "address"
        },
        {
          "indexed": false,
          "internalType": "uint256",
          "name": "amount",
          "type": "uint256"
        }
      ],
      "name": "PaymentReceived",
      "type": "event"
    },
    {
      "anonymous": false,
      "inputs": [
        {
          "indexed": false,
          "internalType": "address",
          "name": "player",
          "type": "address"
        },
        {
          "indexed": false,
          "internalType": "uint256",
          "name": "amount",
          "type": "uint256"
        }
      ],
      "name": "PaymentSent",
      "type": "event"
    },
    {
      "anonymous": false,
      "inputs": [
        {
          "indexed": false,
          "internalType": "address",
          "name": "player",
          "type": "address"
        }
      ],
      "name": "PlayerJoined",
      "type": "event"
    },
    {
      "anonymous": false,
      "inputs": [
        {
          "indexed": false,
          "internalType": "address",
          "name": "player",
          "type": "address"
        }
      ],
      "name": "PlayerReady",
      "type": "event"
    },
    {
      "inputs": [],
      "name": "checkGameStart",
      "outputs": [],
      "stateMutability": "nonpayable",
      "type": "function"
    },
    {
      "inputs": [],
      "name": "clearGame",
      "outputs": [],
      "stateMutability": "nonpayable",
      "type": "function"
    },
    {
      "inputs": [],
      "name": "deposit",
      "outputs": [],
      "stateMutability": "payable",
      "type": "function"
    },
    {
      "inputs": [],
      "name": "gameStarted",
      "outputs": [
        {
          "internalType": "bool",
          "name": "",
          "type": "bool"
        }
      ],
      "stateMutability": "view",
      "type": "function"
    },
    {
      "inputs": [],
      "name": "joinGame",
      "outputs": [],
      "stateMutability": "nonpayable",
      "type": "function"
    },
    {
      "inputs": [],
      "name": "owner",
      "outputs": [
        {
          "internalType": "address",
          "name": "",
          "type": "address"
        }
      ],
      "stateMutability": "view",
      "type": "function"
    },
    {
      "inputs": [],
      "name": "playerCount",
      "outputs": [
        {
          "internalType": "uint8",
          "name": "",
          "type": "uint8"
        }
      ],
      "stateMutability": "view",
      "type": "function"
    },
    {
      "inputs": [
        {
          "internalType": "uint256",
          "name": "",
          "type": "uint256"
        }
      ],
      "name": "players",
      "outputs": [
        {
          "internalType": "address",
          "name": "",
          "type": "address"
        }
      ],
      "stateMutability": "view",
      "type": "function"
    },
    {
      "inputs": [],
      "name": "ready",
      "outputs": [],
      "stateMutability": "nonpayable",
      "type": "function"
    },
    {
      "inputs": [
        {
          "internalType": "uint256",
          "name": "",
          "type": "uint256"
        }
      ],
      "name": "readyStatus",
      "outputs": [
        {
          "internalType": "bool",
          "name": "",
          "type": "bool"
        }
      ],
      "stateMutability": "view",
      "type": "function"
    },
    {
      "inputs": [
        {
          "internalType": "address payable",
          "name": "_to",
          "type": "address"
        },
        {
          "internalType": "uint256",
          "name": "_amount",
          "type": "uint256"
        }
      ],
      "name": "sendPayment",
      "outputs": [],
      "stateMutability": "nonpayable",
      "type": "function"
    },
    {
      "inputs": [],
      "name": "unready",
      "outputs": [],
      "stateMutability": "nonpayable",
      "type": "function"
    }
  ],
  "bytecode": "0x60806040526000600560006101000a81548160ff021916908360ff1602179055506000600560016101000a81548160ff02191690831515021790555034801561004757600080fd5b5033600560026101000a81548173ffffffffffffffffffffffffffffffffffffffff021916908373ffffffffffffffffffffffffffffffffffffffff160217905550611bec806100986000396000f3fe6080604052600436106100a75760003560e01c8063935f4c1811610064578063935f4c1814610198578063abbdc272146101c1578063d0e30db0146101d8578063d4f77b1c146101e2578063f131a7ae146101f9578063f71d96cb14610210576100a7565b8063076b4f75146100ac578063302bcc57146100c35780633c520936146100ee5780635e123ce41461012b5780636defbf80146101565780638da5cb5b1461016d575b600080fd5b3480156100b857600080fd5b506100c161024d565b005b3480156100cf57600080fd5b506100d86105fa565b6040516100e59190611400565b60405180910390f35b3480156100fa57600080fd5b5061011560048036038101906101109190611456565b61060d565b604051610122919061149e565b60405180910390f35b34801561013757600080fd5b50610140610637565b60405161014d919061149e565b60405180910390f35b34801561016257600080fd5b5061016b61064a565b005b34801561017957600080fd5b50610182610a65565b60405161018f91906114fa565b60405180910390f35b3480156101a457600080fd5b506101bf60048036038101906101ba9190611553565b610a8b565b005b3480156101cd57600080fd5b506101d6610be2565b005b6101e0610d94565b005b3480156101ee57600080fd5b506101f7610fc9565b005b34801561020557600080fd5b5061020e611239565b005b34801561021c57600080fd5b5061023760048036038101906102329190611456565b6113ae565b60405161024491906114fa565b60405180910390f35b60005b60048160ff161015610468573373ffffffffffffffffffffffffffffffffffffffff1660008260ff166004811061028a57610289611593565b5b0160009054906101000a900473ffffffffffffffffffffffffffffffffffffffff1673ffffffffffffffffffffffffffffffffffffffff160361045b5760001515600560019054906101000a900460ff1615151461031d576040517f08c379a000000000000000000000000000000000000000000000000000000000815260040161031490611645565b60405180910390fd5b60005b60048160ff161015610454573373ffffffffffffffffffffffffffffffffffffffff1660008260ff166004811061035a57610359611593565b5b0160009054906101000a900473ffffffffffffffffffffffffffffffffffffffff1673ffffffffffffffffffffffffffffffffffffffff1603610447576001151560048260ff16600481106103b2576103b1611593565b5b602091828204019190069054906101000a900460ff1615151461040a576040517f08c379a0000000000000000000000000000000000000000000000000000000008152600401610401906116b1565b60405180910390fd5b600060048260ff166004811061042357610422611593565b5b602091828204019190066101000a81548160ff021916908315150217905550610454565b8080600101915050610320565b50506105f8565b8080600101915050610250565b5060001515600560019054906101000a900460ff161515146104bf576040517f08c379a00000000000000000000000000000000000000000000000000000000081526004016104b690611645565b60405180910390fd5b60005b60048160ff1610156105f6573373ffffffffffffffffffffffffffffffffffffffff1660008260ff16600481106104fc576104fb611593565b5b0160009054906101000a900473ffffffffffffffffffffffffffffffffffffffff1673ffffffffffffffffffffffffffffffffffffffff16036105e9576001151560048260ff166004811061055457610553611593565b5b602091828204019190069054906101000a900460ff161515146105ac576040517f08c379a00000000000000000000000000000000000000000000000000000000081526004016105a3906116b1565b60405180910390fd5b600060048260ff16600481106105c5576105c4611593565b5b602091828204019190066101000a81548160ff0219169083151502179055506105f6565b80806001019150506104c2565b505b565b600560009054906101000a900460ff1681565b6004816004811061061d57600080fd5b60209182820401919006915054906101000a900460ff1681565b600560019054906101000a900460ff1681565b60005b60048160ff16101561089c573373ffffffffffffffffffffffffffffffffffffffff1660008260ff166004811061068757610686611593565b5b0160009054906101000a900473ffffffffffffffffffffffffffffffffffffffff1673ffffffffffffffffffffffffffffffffffffffff160361088f5760001515600560019054906101000a900460ff1615151461071a576040517f08c379a000000000000000000000000000000000000000000000000000000000815260040161071190611743565b60405180910390fd5b60005b60048160ff161015610888573373ffffffffffffffffffffffffffffffffffffffff1660008260ff166004811061075757610756611593565b5b0160009054906101000a900473ffffffffffffffffffffffffffffffffffffffff1673ffffffffffffffffffffffffffffffffffffffff160361087b576000151560048260ff16600481106107af576107ae611593565b5b602091828204019190069054906101000a900460ff16151514610807576040517f08c379a00000000000000000000000000000000000000000000000000000000081526004016107fe906117af565b60405180910390fd5b600160048260ff16600481106108205761081f611593565b5b602091828204019190066101000a81548160ff0219169083151502179055507f29a6c4e7b90755c093f719c6cdcbde79ef54e97fa620e06ba0d109f899e54e803360405161086e91906114fa565b60405180910390a1610888565b808060010191505061071d565b5050610a63565b808060010191505061064d565b5060001515600560019054906101000a900460ff161515146108f3576040517f08c379a00000000000000000000000000000000000000000000000000000000081526004016108ea90611743565b60405180910390fd5b60005b60048160ff161015610a61573373ffffffffffffffffffffffffffffffffffffffff1660008260ff16600481106109305761092f611593565b5b0160009054906101000a900473ffffffffffffffffffffffffffffffffffffffff1673ffffffffffffffffffffffffffffffffffffffff1603610a54576000151560048260ff166004811061098857610987611593565b5b602091828204019190069054906101000a900460ff161515146109e0576040517f08c379a00000000000000000000000000000000000000000000000000000000081526004016109d7906117af565b60405180910390fd5b600160048260ff16600481106109f9576109f8611593565b5b602091828204019190066101000a81548160ff0219169083151502179055507f29a6c4e7b90755c093f719c6cdcbde79ef54e97fa620e06ba0d109f899e54e8033604051610a4791906114fa565b60405180910390a1610a61565b80806001019150506108f6565b505b565b600560029054906101000a900473ffffffffffffffffffffffffffffffffffffffff1681565b600560029054906101000a900473ffffffffffffffffffffffffffffffffffffffff1673ffffffffffffffffffffffffffffffffffffffff163373ffffffffffffffffffffffffffffffffffffffff1614610b1b576040517f08c379a0000000000000000000000000000000000000000000000000000000008152600401610b1290611841565b60405180910390fd5b60004711610b5e576040517f08c379a0000000000000000000000000000000000000000000000000000000008152600401610b55906118d3565b60405180910390fd5b8173ffffffffffffffffffffffffffffffffffffffff166108fc829081150290604051600060405180830381858888f19350505050158015610ba4573d6000803e3d6000fd5b507f47db2abce6d5fbcd80ffd9b4ba74dcde804a746ef732bc7f8a70fabfc912c5908282604051610bd6929190611961565b60405180910390a15050565b600560029054906101000a900473ffffffffffffffffffffffffffffffffffffffff1673ffffffffffffffffffffffffffffffffffffffff163373ffffffffffffffffffffffffffffffffffffffff1614610c72576040517f08c379a0000000000000000000000000000000000000000000000000000000008152600401610c6990611841565b60405180910390fd5b60005b60048160ff161015610d3e57600073ffffffffffffffffffffffffffffffffffffffff1660008260ff1660048110610cb057610caf611593565b5b0160009054906101000a900473ffffffffffffffffffffffffffffffffffffffff1673ffffffffffffffffffffffffffffffffffffffff1603610cf35750610d92565b6000151560048260ff1660048110610d0e57610d0d611593565b5b602091828204019190069054906101000a900460ff16151503610d315750610d92565b8080600101915050610c75565b506001600560016101000a81548160ff0219169083151502179055507f50ad08f58a27f2851d7e3a1b3a6a46b290f2ce677e99642d30ff639721e7779042604051610d89919061198a565b60405180910390a15b565b60005b60048160ff161015610ef3573373ffffffffffffffffffffffffffffffffffffffff1660008260ff1660048110610dd157610dd0611593565b5b0160009054906101000a900473ffffffffffffffffffffffffffffffffffffffff1673ffffffffffffffffffffffffffffffffffffffff1603610ee65760001515600560019054906101000a900460ff16151514610e64576040517f08c379a0000000000000000000000000000000000000000000000000000000008152600401610e5b90611645565b60405180910390fd5b60003411610ea7576040517f08c379a0000000000000000000000000000000000000000000000000000000008152600401610e9e90611a17565b60405180910390fd5b7f6ef95f06320e7a25a04a175ca677b7052bdd97131872c2192525a629f51be7703334604051610ed8929190611a37565b60405180910390a150610fc7565b8080600101915050610d97565b5060001515600560019054906101000a900460ff16151514610f4a576040517f08c379a0000000000000000000000000000000000000000000000000000000008152600401610f4190611645565b60405180910390fd5b60003411610f8d576040517f08c379a0000000000000000000000000000000000000000000000000000000008152600401610f8490611a17565b60405180910390fd5b7f6ef95f06320e7a25a04a175ca677b7052bdd97131872c2192525a629f51be7703334604051610fbe929190611a37565b60405180910390a15b565b6004600560009054906101000a900460ff1660ff161061101e576040517f08c379a000000000000000000000000000000000000000000000000000000000815260040161101590611aac565b60405180910390fd5b60005b60048160ff1610156110e0573373ffffffffffffffffffffffffffffffffffffffff1660008260ff166004811061105b5761105a611593565b5b0160009054906101000a900473ffffffffffffffffffffffffffffffffffffffff1673ffffffffffffffffffffffffffffffffffffffff16036110d3576040517f08c379a00000000000000000000000000000000000000000000000000000000081526004016110ca90611b3e565b60405180910390fd5b8080600101915050611021565b5060005b60048160ff16101561123557600073ffffffffffffffffffffffffffffffffffffffff1660008260ff166004811061111f5761111e611593565b5b0160009054906101000a900473ffffffffffffffffffffffffffffffffffffffff1673ffffffffffffffffffffffffffffffffffffffff1603611228573360008260ff166004811061117457611173611593565b5b0160006101000a81548173ffffffffffffffffffffffffffffffffffffffff021916908373ffffffffffffffffffffffffffffffffffffffff1602179055506005600081819054906101000a900460ff16809291906111d290611b8d565b91906101000a81548160ff021916908360ff160217905550507f31e760aa525306aba638a784082a013b6a1cc0a9a1789f3f22281c0453b10b1f3360405161121a91906114fa565b60405180910390a150611237565b80806001019150506110e4565b505b565b600560029054906101000a900473ffffffffffffffffffffffffffffffffffffffff1673ffffffffffffffffffffffffffffffffffffffff163373ffffffffffffffffffffffffffffffffffffffff16146112c9576040517f08c379a00000000000000000000000000000000000000000000000000000000081526004016112c090611841565b60405180910390fd5b60005b60048160ff161015611374576000808260ff16600481106112f0576112ef611593565b5b0160006101000a81548173ffffffffffffffffffffffffffffffffffffffff021916908373ffffffffffffffffffffffffffffffffffffffff160217905550600060048260ff166004811061134857611347611593565b5b602091828204019190066101000a81548160ff02191690831515021790555080806001019150506112cc565b506000600560006101000a81548160ff021916908360ff1602179055506000600560016101000a81548160ff021916908315150217905550565b600081600481106113be57600080fd5b016000915054906101000a900473ffffffffffffffffffffffffffffffffffffffff1681565b600060ff82169050919050565b6113fa816113e4565b82525050565b600060208201905061141560008301846113f1565b92915050565b600080fd5b6000819050919050565b61143381611420565b811461143e57600080fd5b50565b6000813590506114508161142a565b92915050565b60006020828403121561146c5761146b61141b565b5b600061147a84828501611441565b91505092915050565b60008115159050919050565b61149881611483565b82525050565b60006020820190506114b3600083018461148f565b92915050565b600073ffffffffffffffffffffffffffffffffffffffff82169050919050565b60006114e4826114b9565b9050919050565b6114f4816114d9565b82525050565b600060208201905061150f60008301846114eb565b92915050565b6000611520826114b9565b9050919050565b61153081611515565b811461153b57600080fd5b50565b60008135905061154d81611527565b92915050565b6000806040838503121561156a5761156961141b565b5b60006115788582860161153e565b925050602061158985828601611441565b9150509250929050565b7f4e487b7100000000000000000000000000000000000000000000000000000000600052603260045260246000fd5b600082825260208201905092915050565b7f47616d652068617320616c72656164792073746172746564202d20776169742060008201527f666f72206e6578742067616d6500000000000000000000000000000000000000602082015250565b600061162f602d836115c2565b915061163a826115d3565b604082019050919050565b6000602082019050818103600083015261165e81611622565b9050919050565b7f506c61796572206973206e6f7420726561647900000000000000000000000000600082015250565b600061169b6013836115c2565b91506116a682611665565b602082019050919050565b600060208201905081810360008301526116ca8161168e565b9050919050565b7f47616d652068617320616c72656164792073746172746564202d20776169742060008201527f666f722067616d6520746f20656e640000000000000000000000000000000000602082015250565b600061172d602f836115c2565b9150611738826116d1565b604082019050919050565b6000602082019050818103600083015261175c81611720565b9050919050565b7f506c6179657220697320616c7265616479207265616479000000000000000000600082015250565b60006117996017836115c2565b91506117a482611763565b602082019050919050565b600060208201905081810360008301526117c88161178c565b9050919050565b7f556e617574686f72697a656420616363657373202d206e6f7420746865206f7760008201527f6e65720000000000000000000000000000000000000000000000000000000000602082015250565b600061182b6023836115c2565b9150611836826117cf565b604082019050919050565b6000602082019050818103600083015261185a8161181e565b9050919050565b7f436f6e74726163742062616c616e63652069732030202d206e6f7468696e672060008201527f746f207769746864726177000000000000000000000000000000000000000000602082015250565b60006118bd602b836115c2565b91506118c882611861565b604082019050919050565b600060208201905081810360008301526118ec816118b0565b9050919050565b6000819050919050565b600061191861191361190e846114b9565b6118f3565b6114b9565b9050919050565b600061192a826118fd565b9050919050565b600061193c8261191f565b9050919050565b61194c81611931565b82525050565b61195b81611420565b82525050565b60006040820190506119766000830185611943565b6119836020830184611952565b9392505050565b600060208201905061199f6000830184611952565b92915050565b7f4465706f73697420616d6f756e742073686f756c64206265206772656174657260008201527f207468616e203000000000000000000000000000000000000000000000000000602082015250565b6000611a016027836115c2565b9150611a0c826119a5565b604082019050919050565b60006020820190508181036000830152611a30816119f4565b9050919050565b6000604082019050611a4c60008301856114eb565b611a596020830184611952565b9392505050565b7f47616d6520697320616c72656164792066756c6c000000000000000000000000600082015250565b6000611a966014836115c2565b9150611aa182611a60565b602082019050919050565b60006020820190508181036000830152611ac581611a89565b9050919050565b7f506c617965722068617320616c7265616479206a6f696e65642074686520676160008201527f6d65000000000000000000000000000000000000000000000000000000000000602082015250565b6000611b286022836115c2565b9150611b3382611acc565b604082019050919050565b60006020820190508181036000830152611b5781611b1b565b9050919050565b7f4e487b7100000000000000000000000000000000000000000000000000000000600052601160045260246000fd5b6000611b98826113e4565b915060ff8203611bab57611baa611b5e565b5b60018201905091905056fea2646970667358221220d33e3723cb2f9a7fa301efb7f28ea609ffd40c42710fafaaff31f7285b6b347e64736f6c63430008180033",
  "linkReferences": {},
  "deployedLinkReferences": {}
}